{
  "contractName": "NFTMktplace",
  "abi": [
    {
      "inputs": [],
      "stateMutability": "nonpayable",
      "type": "constructor"
    },
    {
      "inputs": [],
      "name": "itemCount",
      "outputs": [
        {
          "internalType": "uint256",
          "name": "",
          "type": "uint256"
        }
      ],
      "stateMutability": "view",
      "type": "function",
      "constant": true
    },
    {
      "inputs": [
        {
          "internalType": "uint256",
          "name": "",
          "type": "uint256"
        }
      ],
      "name": "listedNFTs",
      "outputs": [
        {
          "internalType": "uint256",
          "name": "tokenID",
          "type": "uint256"
        },
        {
          "internalType": "string",
          "name": "tokenName",
          "type": "string"
        },
        {
          "internalType": "string",
          "name": "tokenSymbol",
          "type": "string"
        },
        {
          "internalType": "string",
          "name": "imageURI",
          "type": "string"
        },
        {
          "internalType": "uint256",
          "name": "price",
          "type": "uint256"
        },
        {
          "internalType": "address",
          "name": "owner",
          "type": "address"
        },
        {
          "internalType": "bool",
          "name": "listed",
          "type": "bool"
        },
        {
          "internalType": "bool",
          "name": "sold",
          "type": "bool"
        }
      ],
      "stateMutability": "view",
      "type": "function",
      "constant": true
    },
    {
      "stateMutability": "payable",
      "type": "receive",
      "payable": true
    },
    {
      "inputs": [
        {
          "internalType": "string",
          "name": "_name",
          "type": "string"
        },
        {
          "internalType": "string",
          "name": "_symbol",
          "type": "string"
        },
        {
          "internalType": "string",
          "name": "_URI",
          "type": "string"
        },
        {
          "internalType": "uint256",
          "name": "_price",
          "type": "uint256"
        }
      ],
      "name": "mintAndListNFT",
      "outputs": [],
      "stateMutability": "payable",
      "type": "function",
      "payable": true
    },
    {
      "inputs": [
        {
          "internalType": "uint256",
          "name": "_tokenID",
          "type": "uint256"
        }
      ],
      "name": "buyNFT",
      "outputs": [],
      "stateMutability": "payable",
      "type": "function",
      "payable": true
    },
    {
      "inputs": [
        {
          "internalType": "uint256",
          "name": "_tokenID",
          "type": "uint256"
        }
      ],
      "name": "listABoughtNFT",
      "outputs": [],
      "stateMutability": "payable",
      "type": "function",
      "payable": true
    },
    {
      "inputs": [
        {
          "internalType": "uint256",
          "name": "_tokenID",
          "type": "uint256"
        }
      ],
      "name": "getNFTFromID",
      "outputs": [
        {
          "components": [
            {
              "internalType": "uint256",
              "name": "tokenID",
              "type": "uint256"
            },
            {
              "internalType": "string",
              "name": "tokenName",
              "type": "string"
            },
            {
              "internalType": "string",
              "name": "tokenSymbol",
              "type": "string"
            },
            {
              "internalType": "string",
              "name": "imageURI",
              "type": "string"
            },
            {
              "internalType": "uint256",
              "name": "price",
              "type": "uint256"
            },
            {
              "internalType": "address",
              "name": "owner",
              "type": "address"
            },
            {
              "internalType": "bool",
              "name": "listed",
              "type": "bool"
            },
            {
              "internalType": "bool",
              "name": "sold",
              "type": "bool"
            }
          ],
          "internalType": "struct NFT",
          "name": "",
          "type": "tuple"
        }
      ],
      "stateMutability": "view",
      "type": "function",
      "constant": true
    },
    {
      "inputs": [
        {
          "internalType": "address",
          "name": "_owner",
          "type": "address"
        }
      ],
      "name": "getNFTBalance",
      "outputs": [
        {
          "internalType": "uint256",
          "name": "",
          "type": "uint256"
        }
      ],
      "stateMutability": "view",
      "type": "function",
      "constant": true
    },
    {
      "inputs": [
        {
          "internalType": "address",
          "name": "_owner",
          "type": "address"
        }
      ],
      "name": "getNFTs",
      "outputs": [
        {
          "components": [
            {
              "internalType": "uint256",
              "name": "tokenID",
              "type": "uint256"
            },
            {
              "internalType": "string",
              "name": "tokenName",
              "type": "string"
            },
            {
              "internalType": "string",
              "name": "tokenSymbol",
              "type": "string"
            },
            {
              "internalType": "string",
              "name": "imageURI",
              "type": "string"
            },
            {
              "internalType": "uint256",
              "name": "price",
              "type": "uint256"
            },
            {
              "internalType": "address",
              "name": "owner",
              "type": "address"
            },
            {
              "internalType": "bool",
              "name": "listed",
              "type": "bool"
            },
            {
              "internalType": "bool",
              "name": "sold",
              "type": "bool"
            }
          ],
          "internalType": "struct NFT[]",
          "name": "",
          "type": "tuple[]"
        }
      ],
      "stateMutability": "view",
      "type": "function",
      "constant": true
    },
    {
      "inputs": [],
      "name": "withdraw",
      "outputs": [],
      "stateMutability": "payable",
      "type": "function",
      "payable": true
    }
  ],
  "bytecode": "0x608060405234801561001057600080fd5b5033600260006101000a81548173ffffffffffffffffffffffffffffffffffffffff021916908373ffffffffffffffffffffffffffffffffffffffff160217905550612170806100616000396000f3fe60806040526004361061008a5760003560e01c80637319011f116100595780637319011f1461010357806382183fb014610140578063849ec0ca1461017d578063a01dc41f14610199578063bf8ebd85146101dd57610091565b806332484923146100965780633ccfd60b146100b257806351ed8288146100bc5780636bfb0d01146100d857610091565b3661009157005b600080fd5b6100b060048036038101906100ab9190611262565b61021a565b005b6100ba6103ca565b005b6100d660048036038101906100d19190611262565b610435565b005b3480156100e457600080fd5b506100ed61071b565b6040516100fa919061129e565b60405180910390f35b34801561010f57600080fd5b5061012a60048036038101906101259190611262565b610721565b6040516101379190611472565b60405180910390f35b34801561014c57600080fd5b50610167600480360381019061016291906114c0565b6109a4565b604051610174919061166d565b60405180910390f35b610197600480360381019061019291906117c4565b610d4c565b005b3480156101a557600080fd5b506101c060048036038101906101bb9190611262565b610efb565b6040516101d49897969594939291906118e7565b60405180910390f35b3480156101e957600080fd5b5061020460048036038101906101ff91906114c0565b611115565b604051610211919061129e565b60405180910390f35b60008082815260200190815260200160002060050160009054906101000a900473ffffffffffffffffffffffffffffffffffffffff1673ffffffffffffffffffffffffffffffffffffffff163373ffffffffffffffffffffffffffffffffffffffff16146102bd576040517f08c379a00000000000000000000000000000000000000000000000000000000081526004016102b4906119c6565b60405180910390fd5b6103e8341015610302576040517f08c379a00000000000000000000000000000000000000000000000000000000081526004016102f990611a58565b60405180910390fd5b6001151560008083815260200190815260200160002060050160159054906101000a900460ff1615151461036b576040517f08c379a000000000000000000000000000000000000000000000000000000000815260040161036290611ac4565b60405180910390fd5b600160008083815260200190815260200160002060050160146101000a81548160ff021916908315150217905550600080600083815260200190815260200160002060050160156101000a81548160ff02191690831515021790555050565b600260009054906101000a900473ffffffffffffffffffffffffffffffffffffffff1673ffffffffffffffffffffffffffffffffffffffff166108fc479081150290604051600060405180830381858888f19350505050158015610432573d6000803e3d6000fd5b50565b6000606460008084815260200190815260200160002060040154600a61045b9190611b13565b6104659190611b84565b600080848152602001908152602001600020600401546104859190611bb5565b9050803410156104ca576040517f08c379a00000000000000000000000000000000000000000000000000000000081526004016104c190611c5b565b60405180910390fd5b3373ffffffffffffffffffffffffffffffffffffffff1660008084815260200190815260200160002060050160009054906101000a900473ffffffffffffffffffffffffffffffffffffffff1673ffffffffffffffffffffffffffffffffffffffff160361056d576040517f08c379a000000000000000000000000000000000000000000000000000000000815260040161056490611cc7565b60405180910390fd5b6001151560008084815260200190815260200160002060050160149054906101000a900460ff161515146105d6576040517f08c379a00000000000000000000000000000000000000000000000000000000081526004016105cd90611d33565b60405180910390fd5b60008083815260200190815260200160002060050160009054906101000a900473ffffffffffffffffffffffffffffffffffffffff1673ffffffffffffffffffffffffffffffffffffffff166108fc600080858152602001908152602001600020600401549081150290604051600060405180830381858888f19350505050158015610666573d6000803e3d6000fd5b503360008084815260200190815260200160002060050160006101000a81548173ffffffffffffffffffffffffffffffffffffffff021916908373ffffffffffffffffffffffffffffffffffffffff160217905550600080600084815260200190815260200160002060050160146101000a81548160ff021916908315150217905550600160008084815260200190815260200160002060050160156101000a81548160ff0219169083151502179055505050565b60015481565b6107296111b9565b600080838152602001908152602001600020604051806101000160405290816000820154815260200160018201805461076190611d82565b80601f016020809104026020016040519081016040528092919081815260200182805461078d90611d82565b80156107da5780601f106107af576101008083540402835291602001916107da565b820191906000526020600020905b8154815290600101906020018083116107bd57829003601f168201915b505050505081526020016002820180546107f390611d82565b80601f016020809104026020016040519081016040528092919081815260200182805461081f90611d82565b801561086c5780601f106108415761010080835404028352916020019161086c565b820191906000526020600020905b81548152906001019060200180831161084f57829003601f168201915b5050505050815260200160038201805461088590611d82565b80601f01602080910402602001604051908101604052809291908181526020018280546108b190611d82565b80156108fe5780601f106108d3576101008083540402835291602001916108fe565b820191906000526020600020905b8154815290600101906020018083116108e157829003601f168201915b50505050508152602001600482015481526020016005820160009054906101000a900473ffffffffffffffffffffffffffffffffffffffff1673ffffffffffffffffffffffffffffffffffffffff1673ffffffffffffffffffffffffffffffffffffffff1681526020016005820160149054906101000a900460ff161515151581526020016005820160159054906101000a900460ff1615151515815250509050919050565b606060006109b183611115565b905060008167ffffffffffffffff8111156109cf576109ce611699565b5b604051908082528060200260200182016040528015610a0857816020015b6109f56111b9565b8152602001906001900390816109ed5790505b5090506000805b60015481108015610a1f57508382105b15610d40578573ffffffffffffffffffffffffffffffffffffffff1660008083815260200190815260200160002060050160009054906101000a900473ffffffffffffffffffffffffffffffffffffffff1673ffffffffffffffffffffffffffffffffffffffff1603610d2d576000808281526020019081526020016000206040518061010001604052908160008201548152602001600182018054610ac490611d82565b80601f0160208091040260200160405190810160405280929190818152602001828054610af090611d82565b8015610b3d5780601f10610b1257610100808354040283529160200191610b3d565b820191906000526020600020905b815481529060010190602001808311610b2057829003601f168201915b50505050508152602001600282018054610b5690611d82565b80601f0160208091040260200160405190810160405280929190818152602001828054610b8290611d82565b8015610bcf5780601f10610ba457610100808354040283529160200191610bcf565b820191906000526020600020905b815481529060010190602001808311610bb257829003601f168201915b50505050508152602001600382018054610be890611d82565b80601f0160208091040260200160405190810160405280929190818152602001828054610c1490611d82565b8015610c615780601f10610c3657610100808354040283529160200191610c61565b820191906000526020600020905b815481529060010190602001808311610c4457829003601f168201915b50505050508152602001600482015481526020016005820160009054906101000a900473ffffffffffffffffffffffffffffffffffffffff1673ffffffffffffffffffffffffffffffffffffffff1673ffffffffffffffffffffffffffffffffffffffff1681526020016005820160149054906101000a900460ff161515151581526020016005820160159054906101000a900460ff161515151581525050838381518110610d1357610d12611db3565b5b60200260200101819052508180610d2990611de2565b9250505b8080610d3890611de2565b915050610a0f565b50819350505050919050565b6103e8341015610d91576040517f08c379a0000000000000000000000000000000000000000000000000000000008152600401610d8890611e9c565b60405180910390fd5b60405180610100016040528060015481526020018581526020018481526020018381526020018281526020013373ffffffffffffffffffffffffffffffffffffffff168152602001600115158152602001600015158152506000806001548152602001908152602001600020600082015181600001556020820151816001019081610e1c9190612068565b506040820151816002019081610e329190612068565b506060820151816003019081610e489190612068565b506080820151816004015560a08201518160050160006101000a81548173ffffffffffffffffffffffffffffffffffffffff021916908373ffffffffffffffffffffffffffffffffffffffff16021790555060c08201518160050160146101000a81548160ff02191690831515021790555060e08201518160050160156101000a81548160ff02191690831515021790555090505060016000815480929190610ef090611de2565b919050555050505050565b6000602052806000526040600020600091509050806000015490806001018054610f2490611d82565b80601f0160208091040260200160405190810160405280929190818152602001828054610f5090611d82565b8015610f9d5780601f10610f7257610100808354040283529160200191610f9d565b820191906000526020600020905b815481529060010190602001808311610f8057829003601f168201915b505050505090806002018054610fb290611d82565b80601f0160208091040260200160405190810160405280929190818152602001828054610fde90611d82565b801561102b5780601f106110005761010080835404028352916020019161102b565b820191906000526020600020905b81548152906001019060200180831161100e57829003601f168201915b50505050509080600301805461104090611d82565b80601f016020809104026020016040519081016040528092919081815260200182805461106c90611d82565b80156110b95780601f1061108e576101008083540402835291602001916110b9565b820191906000526020600020905b81548152906001019060200180831161109c57829003601f168201915b5050505050908060040154908060050160009054906101000a900473ffffffffffffffffffffffffffffffffffffffff16908060050160149054906101000a900460ff16908060050160159054906101000a900460ff16905088565b60008060005b6001548110156111af578373ffffffffffffffffffffffffffffffffffffffff1660008083815260200190815260200160002060050160009054906101000a900473ffffffffffffffffffffffffffffffffffffffff1673ffffffffffffffffffffffffffffffffffffffff160361119c57818061119890611de2565b9250505b80806111a790611de2565b91505061111b565b5080915050919050565b6040518061010001604052806000815260200160608152602001606081526020016060815260200160008152602001600073ffffffffffffffffffffffffffffffffffffffff1681526020016000151581526020016000151581525090565b6000604051905090565b600080fd5b600080fd5b6000819050919050565b61123f8161122c565b811461124a57600080fd5b50565b60008135905061125c81611236565b92915050565b60006020828403121561127857611277611222565b5b60006112868482850161124d565b91505092915050565b6112988161122c565b82525050565b60006020820190506112b3600083018461128f565b92915050565b6112c28161122c565b82525050565b600081519050919050565b600082825260208201905092915050565b60005b838110156113025780820151818401526020810190506112e7565b60008484015250505050565b6000601f19601f8301169050919050565b600061132a826112c8565b61133481856112d3565b93506113448185602086016112e4565b61134d8161130e565b840191505092915050565b600073ffffffffffffffffffffffffffffffffffffffff82169050919050565b600061138382611358565b9050919050565b61139381611378565b82525050565b60008115159050919050565b6113ae81611399565b82525050565b6000610100830160008301516113cd60008601826112b9565b50602083015184820360208601526113e5828261131f565b915050604083015184820360408601526113ff828261131f565b91505060608301518482036060860152611419828261131f565b915050608083015161142e60808601826112b9565b5060a083015161144160a086018261138a565b5060c083015161145460c08601826113a5565b5060e083015161146760e08601826113a5565b508091505092915050565b6000602082019050818103600083015261148c81846113b4565b905092915050565b61149d81611378565b81146114a857600080fd5b50565b6000813590506114ba81611494565b92915050565b6000602082840312156114d6576114d5611222565b5b60006114e4848285016114ab565b91505092915050565b600081519050919050565b600082825260208201905092915050565b6000819050602082019050919050565b60006101008301600083015161153260008601826112b9565b506020830151848203602086015261154a828261131f565b91505060408301518482036040860152611564828261131f565b9150506060830151848203606086015261157e828261131f565b915050608083015161159360808601826112b9565b5060a08301516115a660a086018261138a565b5060c08301516115b960c08601826113a5565b5060e08301516115cc60e08601826113a5565b508091505092915050565b60006115e38383611519565b905092915050565b6000602082019050919050565b6000611603826114ed565b61160d81856114f8565b93508360208202850161161f85611509565b8060005b8581101561165b578484038952815161163c85826115d7565b9450611647836115eb565b925060208a01995050600181019050611623565b50829750879550505050505092915050565b6000602082019050818103600083015261168781846115f8565b905092915050565b600080fd5b600080fd5b7f4e487b7100000000000000000000000000000000000000000000000000000000600052604160045260246000fd5b6116d18261130e565b810181811067ffffffffffffffff821117156116f0576116ef611699565b5b80604052505050565b6000611703611218565b905061170f82826116c8565b919050565b600067ffffffffffffffff82111561172f5761172e611699565b5b6117388261130e565b9050602081019050919050565b82818337600083830152505050565b600061176761176284611714565b6116f9565b90508281526020810184848401111561178357611782611694565b5b61178e848285611745565b509392505050565b600082601f8301126117ab576117aa61168f565b5b81356117bb848260208601611754565b91505092915050565b600080600080608085870312156117de576117dd611222565b5b600085013567ffffffffffffffff8111156117fc576117fb611227565b5b61180887828801611796565b945050602085013567ffffffffffffffff81111561182957611828611227565b5b61183587828801611796565b935050604085013567ffffffffffffffff81111561185657611855611227565b5b61186287828801611796565b92505060606118738782880161124d565b91505092959194509250565b600082825260208201905092915050565b600061189b826112c8565b6118a5818561187f565b93506118b58185602086016112e4565b6118be8161130e565b840191505092915050565b6118d281611378565b82525050565b6118e181611399565b82525050565b6000610100820190506118fd600083018b61128f565b818103602083015261190f818a611890565b905081810360408301526119238189611890565b905081810360608301526119378188611890565b9050611946608083018761128f565b61195360a08301866118c9565b61196060c08301856118d8565b61196d60e08301846118d8565b9998505050505050505050565b7f596f7520617265206e6f7420746865206f776e65720000000000000000000000600082015250565b60006119b060158361187f565b91506119bb8261197a565b602082019050919050565b600060208201905081810360008301526119df816119a3565b9050919050565b7f4b696e646c792073656e642072657175697265642077656920746f206c69737460008201527f204e465400000000000000000000000000000000000000000000000000000000602082015250565b6000611a4260248361187f565b9150611a4d826119e6565b604082019050919050565b60006020820190508181036000830152611a7181611a35565b9050919050565b7f546865206974656d206973206e6f7420736f6c64207965740000000000000000600082015250565b6000611aae60188361187f565b9150611ab982611a78565b602082019050919050565b60006020820190508181036000830152611add81611aa1565b9050919050565b7f4e487b7100000000000000000000000000000000000000000000000000000000600052601160045260246000fd5b6000611b1e8261122c565b9150611b298361122c565b9250828202611b378161122c565b91508282048414831517611b4e57611b4d611ae4565b5b5092915050565b7f4e487b7100000000000000000000000000000000000000000000000000000000600052601260045260246000fd5b6000611b8f8261122c565b9150611b9a8361122c565b925082611baa57611ba9611b55565b5b828204905092915050565b6000611bc08261122c565b9150611bcb8361122c565b9250828201905080821115611be357611be2611ae4565b5b92915050565b7f4b696e646c792073656e642072657175697265642066696e616c20707269636560008201527f20746f2062757920746865204e46540000000000000000000000000000000000602082015250565b6000611c45602f8361187f565b9150611c5082611be9565b604082019050919050565b60006020820190508181036000830152611c7481611c38565b9050919050565b7f596f752063616e27742062757920796f7572206f776e204e4654000000000000600082015250565b6000611cb1601a8361187f565b9150611cbc82611c7b565b602082019050919050565b60006020820190508181036000830152611ce081611ca4565b9050919050565b7f546865206974656d206973206e6f74206c697374656400000000000000000000600082015250565b6000611d1d60168361187f565b9150611d2882611ce7565b602082019050919050565b60006020820190508181036000830152611d4c81611d10565b9050919050565b7f4e487b7100000000000000000000000000000000000000000000000000000000600052602260045260246000fd5b60006002820490506001821680611d9a57607f821691505b602082108103611dad57611dac611d53565b5b50919050565b7f4e487b7100000000000000000000000000000000000000000000000000000000600052603260045260246000fd5b6000611ded8261122c565b91507fffffffffffffffffffffffffffffffffffffffffffffffffffffffffffffffff8203611e1f57611e1e611ae4565b5b600182019050919050565b7f4b696e646c792073656e64207265717569726564206665657320746f206d696e60008201527f7420616e64206c697374204e4654000000000000000000000000000000000000602082015250565b6000611e86602e8361187f565b9150611e9182611e2a565b604082019050919050565b60006020820190508181036000830152611eb581611e79565b9050919050565b60008190508160005260206000209050919050565b60006020601f8301049050919050565b600082821b905092915050565b600060088302611f1e7fffffffffffffffffffffffffffffffffffffffffffffffffffffffffffffffff82611ee1565b611f288683611ee1565b95508019841693508086168417925050509392505050565b6000819050919050565b6000611f65611f60611f5b8461122c565b611f40565b61122c565b9050919050565b6000819050919050565b611f7f83611f4a565b611f93611f8b82611f6c565b848454611eee565b825550505050565b600090565b611fa8611f9b565b611fb3818484611f76565b505050565b5b81811015611fd757611fcc600082611fa0565b600181019050611fb9565b5050565b601f82111561201c57611fed81611ebc565b611ff684611ed1565b81016020851015612005578190505b61201961201185611ed1565b830182611fb8565b50505b505050565b600082821c905092915050565b600061203f60001984600802612021565b1980831691505092915050565b6000612058838361202e565b9150826002028217905092915050565b612071826112c8565b67ffffffffffffffff81111561208a57612089611699565b5b6120948254611d82565b61209f828285611fdb565b600060209050601f8311600181146120d257600084156120c0578287015190505b6120ca858261204c565b865550612132565b601f1984166120e086611ebc565b60005b82811015612108578489015182556001820191506020850194506020810190506120e3565b868310156121255784890151612121601f89168261202e565b8355505b6001600288020188555050505b50505050505056fea2646970667358221220be2b9a8f4feaf9cec1f9ccea82be44f2675704b3e1b02f499b36af552c50207064736f6c63430008120033",
  "immutableReferences": {},
  "source": "//SPDX-License-Identifier:GPL-3.0\n\npragma solidity ^0.8.18;\n\n struct NFT {\n        uint tokenID;\n        string tokenName;\n        string tokenSymbol;\n        string imageURI;\n        uint price;\n        address owner;\n        bool listed;\n        bool sold;\n    }\n\ncontract NFTMktplace {\n    mapping(uint=>NFT) public listedNFTs;\n    uint public itemCount;\n    address contractOwner;\n\n    constructor() {\n        contractOwner=msg.sender;\n    }\n        \n    function mintAndListNFT(string memory _name, string memory _symbol, string memory _URI,uint _price) public payable {\n        require(msg.value>=1000,\"Kindly send required fees to mint and list NFT\");\n        listedNFTs[itemCount]=NFT({\n        tokenID:itemCount,\n        tokenName: _name,\n        tokenSymbol: _symbol,\n        imageURI: _URI,\n        price: _price,\n        owner: msg.sender,\n        listed: true,\n        sold: false\n        });\n        itemCount++;\n    }\n\n    \n    function buyNFT(uint _tokenID) public payable {\n        uint finalPrice=listedNFTs[_tokenID].price+10*listedNFTs[_tokenID].price/100;\n        require(msg.value>=finalPrice,\"Kindly send required final price to buy the NFT\");\n        require( listedNFTs[_tokenID].owner!=msg.sender,\"You can't buy your own NFT\");\n        require(listedNFTs[_tokenID].listed==true,\"The item is not listed\");\n        payable(listedNFTs[_tokenID].owner).transfer(listedNFTs[_tokenID].price);\n        listedNFTs[_tokenID].owner=msg.sender;\n        listedNFTs[_tokenID].listed=false;\n        listedNFTs[_tokenID].sold=true;\n    }\n\n    function listABoughtNFT(uint _tokenID) public payable {\n        require(msg.sender==listedNFTs[_tokenID].owner,\"You are not the owner\");\n        require(msg.value>=1000,\"Kindly send required wei to list NFT\");\n        require(listedNFTs[_tokenID].sold==true,\"The item is not sold yet\");\n        listedNFTs[_tokenID].listed=true;\n        listedNFTs[_tokenID].sold=false;\n    }\n\n    function getNFTFromID(uint _tokenID) public view returns(NFT memory) {\n        return listedNFTs[_tokenID];\n    }\n\n    function getNFTBalance(address _owner) public view returns(uint) {\n        uint balance;\n        for(uint i=0;i<itemCount;i++) {\n            if(listedNFTs[i].owner==_owner) {\n                balance++;\n            }\n        }\n        return balance;\n    }\n       \n    function getNFTs(address _owner) public view returns(NFT[] memory) {\n        uint ownerBalance=getNFTBalance(_owner);\n        NFT[] memory ownerNFT=new NFT[](ownerBalance);\n        uint i=0;\n        for (uint j=0;j<itemCount && i<ownerBalance;j++) {\n            if(listedNFTs[j].owner==_owner) {\n                ownerNFT[i]=listedNFTs[j];\n                i++;\n            }\n\n        }\n        \n        return ownerNFT;\n    }\n\n    receive() external payable {\n    }\n\n    function withdraw() public payable {\n        payable(contractOwner).transfer(address(this).balance);\n    }\n\n}",
  "sourcePath": "/home/swapnil/Documents/github/NFT-marketplace/backend/contracts/NFT-marketplace.sol",
  "compiler": {
    "name": "solc",
    "version": "0.8.18+commit.87f61d96.Emscripten.clang"
  },
  "schemaVersion": "3.4.13",
  "updatedAt": "2023-04-28T04:32:02.549Z",
  "networkType": "ethereum",
  "devdoc": {
    "kind": "dev",
    "methods": {},
    "version": 1
  },
  "userdoc": {
    "kind": "user",
    "methods": {},
    "version": 1
  }
}